{
    "_format": "hh-sol-artifact-1",
    "contractName": "MintExample",
    "sourceName": "contracts/MintExample.sol",
    "abi": [
        {
            "inputs": [
                {
                    "internalType": "string",
                    "name": "name",
                    "type": "string"
                },
                {
                    "internalType": "string",
                    "name": "symbol",
                    "type": "string"
                }
            ],
            "stateMutability": "nonpayable",
            "type": "constructor"
        },
        {
            "anonymous": false,
            "inputs": [
                {
                    "indexed": true,
                    "internalType": "address",
                    "name": "owner",
                    "type": "address"
                },
                {
                    "indexed": true,
                    "internalType": "address",
                    "name": "approved",
                    "type": "address"
                },
                {
                    "indexed": true,
                    "internalType": "uint256",
                    "name": "tokenId",
                    "type": "uint256"
                }
            ],
            "name": "Approval",
            "type": "event"
        },
        {
            "anonymous": false,
            "inputs": [
                {
                    "indexed": true,
                    "internalType": "address",
                    "name": "owner",
                    "type": "address"
                },
                {
                    "indexed": true,
                    "internalType": "address",
                    "name": "operator",
                    "type": "address"
                },
                {
                    "indexed": false,
                    "internalType": "bool",
                    "name": "approved",
                    "type": "bool"
                }
            ],
            "name": "ApprovalForAll",
            "type": "event"
        },
        {
            "anonymous": false,
            "inputs": [
                {
                    "indexed": true,
                    "internalType": "address",
                    "name": "previousOwner",
                    "type": "address"
                },
                {
                    "indexed": true,
                    "internalType": "address",
                    "name": "newOwner",
                    "type": "address"
                }
            ],
            "name": "OwnershipTransferred",
            "type": "event"
        },
        {
            "anonymous": false,
            "inputs": [
                {
                    "indexed": true,
                    "internalType": "address",
                    "name": "from",
                    "type": "address"
                },
                {
                    "indexed": true,
                    "internalType": "address",
                    "name": "to",
                    "type": "address"
                },
                {
                    "indexed": true,
                    "internalType": "uint256",
                    "name": "tokenId",
                    "type": "uint256"
                }
            ],
            "name": "Transfer",
            "type": "event"
        },
        {
            "inputs": [
                {
                    "internalType": "address",
                    "name": "to",
                    "type": "address"
                },
                {
                    "internalType": "uint256",
                    "name": "tokenId",
                    "type": "uint256"
                }
            ],
            "name": "approve",
            "outputs": [],
            "stateMutability": "nonpayable",
            "type": "function"
        },
        {
            "inputs": [
                {
                    "internalType": "address",
                    "name": "owner",
                    "type": "address"
                }
            ],
            "name": "balanceOf",
            "outputs": [
                {
                    "internalType": "uint256",
                    "name": "",
                    "type": "uint256"
                }
            ],
            "stateMutability": "view",
            "type": "function"
        },
        {
            "inputs": [
                {
                    "internalType": "address",
                    "name": "",
                    "type": "address"
                }
            ],
            "name": "balances",
            "outputs": [
                {
                    "internalType": "uint256",
                    "name": "",
                    "type": "uint256"
                }
            ],
            "stateMutability": "view",
            "type": "function"
        },
        {
            "inputs": [
                {
                    "internalType": "uint256",
                    "name": "tokenId",
                    "type": "uint256"
                }
            ],
            "name": "getApproved",
            "outputs": [
                {
                    "internalType": "address",
                    "name": "",
                    "type": "address"
                }
            ],
            "stateMutability": "view",
            "type": "function"
        },
        {
            "inputs": [
                {
                    "internalType": "address",
                    "name": "owner",
                    "type": "address"
                },
                {
                    "internalType": "address",
                    "name": "operator",
                    "type": "address"
                }
            ],
            "name": "isApprovedForAll",
            "outputs": [
                {
                    "internalType": "bool",
                    "name": "",
                    "type": "bool"
                }
            ],
            "stateMutability": "view",
            "type": "function"
        },
        {
            "inputs": [
                {
                    "internalType": "uint256",
                    "name": "numberOfMints",
                    "type": "uint256"
                }
            ],
            "name": "mint",
            "outputs": [],
            "stateMutability": "payable",
            "type": "function"
        },
        {
            "inputs": [],
            "name": "name",
            "outputs": [
                {
                    "internalType": "string",
                    "name": "",
                    "type": "string"
                }
            ],
            "stateMutability": "view",
            "type": "function"
        },
        {
            "inputs": [],
            "name": "owner",
            "outputs": [
                {
                    "internalType": "address",
                    "name": "",
                    "type": "address"
                }
            ],
            "stateMutability": "view",
            "type": "function"
        },
        {
            "inputs": [
                {
                    "internalType": "uint256",
                    "name": "tokenId",
                    "type": "uint256"
                }
            ],
            "name": "ownerOf",
            "outputs": [
                {
                    "internalType": "address",
                    "name": "",
                    "type": "address"
                }
            ],
            "stateMutability": "view",
            "type": "function"
        },
        {
            "inputs": [],
            "name": "renounceOwnership",
            "outputs": [],
            "stateMutability": "nonpayable",
            "type": "function"
        },
        {
            "inputs": [
                {
                    "internalType": "address",
                    "name": "from",
                    "type": "address"
                },
                {
                    "internalType": "address",
                    "name": "to",
                    "type": "address"
                },
                {
                    "internalType": "uint256",
                    "name": "tokenId",
                    "type": "uint256"
                }
            ],
            "name": "safeTransferFrom",
            "outputs": [],
            "stateMutability": "nonpayable",
            "type": "function"
        },
        {
            "inputs": [
                {
                    "internalType": "address",
                    "name": "from",
                    "type": "address"
                },
                {
                    "internalType": "address",
                    "name": "to",
                    "type": "address"
                },
                {
                    "internalType": "uint256",
                    "name": "tokenId",
                    "type": "uint256"
                },
                {
                    "internalType": "bytes",
                    "name": "_data",
                    "type": "bytes"
                }
            ],
            "name": "safeTransferFrom",
            "outputs": [],
            "stateMutability": "nonpayable",
            "type": "function"
        },
        {
            "inputs": [
                {
                    "internalType": "address",
                    "name": "operator",
                    "type": "address"
                },
                {
                    "internalType": "bool",
                    "name": "approved",
                    "type": "bool"
                }
            ],
            "name": "setApprovalForAll",
            "outputs": [],
            "stateMutability": "nonpayable",
            "type": "function"
        },
        {
            "inputs": [
                {
                    "internalType": "bytes4",
                    "name": "interfaceId",
                    "type": "bytes4"
                }
            ],
            "name": "supportsInterface",
            "outputs": [
                {
                    "internalType": "bool",
                    "name": "",
                    "type": "bool"
                }
            ],
            "stateMutability": "view",
            "type": "function"
        },
        {
            "inputs": [],
            "name": "symbol",
            "outputs": [
                {
                    "internalType": "string",
                    "name": "",
                    "type": "string"
                }
            ],
            "stateMutability": "view",
            "type": "function"
        },
        {
            "inputs": [
                {
                    "internalType": "uint256",
                    "name": "index",
                    "type": "uint256"
                }
            ],
            "name": "tokenByIndex",
            "outputs": [
                {
                    "internalType": "uint256",
                    "name": "",
                    "type": "uint256"
                }
            ],
            "stateMutability": "view",
            "type": "function"
        },
        {
            "inputs": [
                {
                    "internalType": "address",
                    "name": "owner",
                    "type": "address"
                },
                {
                    "internalType": "uint256",
                    "name": "index",
                    "type": "uint256"
                }
            ],
            "name": "tokenOfOwnerByIndex",
            "outputs": [
                {
                    "internalType": "uint256",
                    "name": "",
                    "type": "uint256"
                }
            ],
            "stateMutability": "view",
            "type": "function"
        },
        {
            "inputs": [
                {
                    "internalType": "uint256",
                    "name": "tokenId",
                    "type": "uint256"
                }
            ],
            "name": "tokenURI",
            "outputs": [
                {
                    "internalType": "string",
                    "name": "",
                    "type": "string"
                }
            ],
            "stateMutability": "view",
            "type": "function"
        },
        {
            "inputs": [],
            "name": "totalSupply",
            "outputs": [
                {
                    "internalType": "uint256",
                    "name": "",
                    "type": "uint256"
                }
            ],
            "stateMutability": "view",
            "type": "function"
        },
        {
            "inputs": [
                {
                    "internalType": "address",
                    "name": "from",
                    "type": "address"
                },
                {
                    "internalType": "address",
                    "name": "to",
                    "type": "address"
                },
                {
                    "internalType": "uint256",
                    "name": "tokenId",
                    "type": "uint256"
                }
            ],
            "name": "transferFrom",
            "outputs": [],
            "stateMutability": "nonpayable",
            "type": "function"
        },
        {
            "inputs": [
                {
                    "internalType": "address",
                    "name": "newOwner",
                    "type": "address"
                }
            ],
            "name": "transferOwnership",
            "outputs": [],
            "stateMutability": "nonpayable",
            "type": "function"
        }
    ],
    "bytecode": "0x60806040523480156200001157600080fd5b506040516200396938038062003969833981810160405281019062000037919062000285565b818181600090805190602001906200005192919062000163565b5080600190805190602001906200006a92919062000163565b5050506200008d620000816200009560201b60201c565b6200009d60201b60201c565b505062000468565b600033905090565b6000600a60009054906101000a900473ffffffffffffffffffffffffffffffffffffffff16905081600a60006101000a81548173ffffffffffffffffffffffffffffffffffffffff021916908373ffffffffffffffffffffffffffffffffffffffff1602179055508173ffffffffffffffffffffffffffffffffffffffff168173ffffffffffffffffffffffffffffffffffffffff167f8be0079c531659141344cd1fd0a4f28419497f9722a3daafe3b4186f6b6457e060405160405180910390a35050565b82805462000171906200038d565b90600052602060002090601f016020900481019282620001955760008555620001e1565b82601f10620001b057805160ff1916838001178555620001e1565b82800160010185558215620001e1579182015b82811115620001e0578251825591602001919060010190620001c3565b5b509050620001f09190620001f4565b5090565b5b808211156200020f576000816000905550600101620001f5565b5090565b60006200022a620002248462000321565b620002f8565b9050828152602081018484840111156200024357600080fd5b6200025084828562000357565b509392505050565b600082601f8301126200026a57600080fd5b81516200027c84826020860162000213565b91505092915050565b600080604083850312156200029957600080fd5b600083015167ffffffffffffffff811115620002b457600080fd5b620002c28582860162000258565b925050602083015167ffffffffffffffff811115620002e057600080fd5b620002ee8582860162000258565b9150509250929050565b60006200030462000317565b9050620003128282620003c3565b919050565b6000604051905090565b600067ffffffffffffffff8211156200033f576200033e62000428565b5b6200034a8262000457565b9050602081019050919050565b60005b83811015620003775780820151818401526020810190506200035a565b8381111562000387576000848401525b50505050565b60006002820490506001821680620003a657607f821691505b60208210811415620003bd57620003bc620003f9565b5b50919050565b620003ce8262000457565b810181811067ffffffffffffffff82111715620003f057620003ef62000428565b5b80604052505050565b7f4e487b7100000000000000000000000000000000000000000000000000000000600052602260045260246000fd5b7f4e487b7100000000000000000000000000000000000000000000000000000000600052604160045260246000fd5b6000601f19601f8301169050919050565b6134f180620004786000396000f3fe60806040526004361061012a5760003560e01c80636352211e116100ab578063a0712d681161006f578063a0712d6814610418578063a22cb46514610434578063b88d4fde1461045d578063c87b56dd14610486578063e985e9c5146104c3578063f2fde38b146105005761012a565b80636352211e1461033157806370a082311461036e578063715018a6146103ab5780638da5cb5b146103c257806395d89b41146103ed5761012a565b806323b872dd116100f257806323b872dd1461022857806327e235e3146102515780632f745c591461028e57806342842e0e146102cb5780634f6ccce7146102f45761012a565b806301ffc9a71461012f57806306fdde031461016c578063081812fc14610197578063095ea7b3146101d457806318160ddd146101fd575b600080fd5b34801561013b57600080fd5b50610156600480360381019061015191906124d1565b610529565b604051610163919061291d565b60405180910390f35b34801561017857600080fd5b506101816105a3565b60405161018e9190612938565b60405180910390f35b3480156101a357600080fd5b506101be60048036038101906101b99190612523565b610635565b6040516101cb91906128b6565b60405180910390f35b3480156101e057600080fd5b506101fb60048036038101906101f69190612495565b6106ba565b005b34801561020957600080fd5b506102126107d2565b60405161021f9190612b9a565b60405180910390f35b34801561023457600080fd5b5061024f600480360381019061024a919061238f565b6107df565b005b34801561025d57600080fd5b506102786004803603810190610273919061232a565b61083f565b6040516102859190612b9a565b60405180910390f35b34801561029a57600080fd5b506102b560048036038101906102b09190612495565b610857565b6040516102c29190612b9a565b60405180910390f35b3480156102d757600080fd5b506102f260048036038101906102ed919061238f565b6108fc565b005b34801561030057600080fd5b5061031b60048036038101906103169190612523565b61091c565b6040516103289190612b9a565b60405180910390f35b34801561033d57600080fd5b5061035860048036038101906103539190612523565b6109b3565b60405161036591906128b6565b60405180910390f35b34801561037a57600080fd5b506103956004803603810190610390919061232a565b610a65565b6040516103a29190612b9a565b60405180910390f35b3480156103b757600080fd5b506103c0610b1d565b005b3480156103ce57600080fd5b506103d7610ba5565b6040516103e491906128b6565b60405180910390f35b3480156103f957600080fd5b50610402610bcf565b60405161040f9190612938565b60405180910390f35b610432600480360381019061042d9190612523565b610c61565b005b34801561044057600080fd5b5061045b60048036038101906104569190612459565b610cfa565b005b34801561046957600080fd5b50610484600480360381019061047f91906123de565b610d10565b005b34801561049257600080fd5b506104ad60048036038101906104a89190612523565b610d72565b6040516104ba9190612938565b60405180910390f35b3480156104cf57600080fd5b506104ea60048036038101906104e59190612353565b610e19565b6040516104f7919061291d565b60405180910390f35b34801561050c57600080fd5b506105276004803603810190610522919061232a565b610ead565b005b60007f780e9d63000000000000000000000000000000000000000000000000000000007bffffffffffffffffffffffffffffffffffffffffffffffffffffffff1916827bffffffffffffffffffffffffffffffffffffffffffffffffffffffff1916148061059c575061059b82610fa5565b5b9050919050565b6060600080546105b290612dbf565b80601f01602080910402602001604051908101604052809291908181526020018280546105de90612dbf565b801561062b5780601f106106005761010080835404028352916020019161062b565b820191906000526020600020905b81548152906001019060200180831161060e57829003601f168201915b5050505050905090565b600061064082611087565b61067f576040517f08c379a000000000000000000000000000000000000000000000000000000000815260040161067690612ada565b60405180910390fd5b6004600083815260200190815260200160002060009054906101000a900473ffffffffffffffffffffffffffffffffffffffff169050919050565b60006106c5826109b3565b90508073ffffffffffffffffffffffffffffffffffffffff168373ffffffffffffffffffffffffffffffffffffffff161415610736576040517f08c379a000000000000000000000000000000000000000000000000000000000815260040161072d90612b3a565b60405180910390fd5b8073ffffffffffffffffffffffffffffffffffffffff166107556110f3565b73ffffffffffffffffffffffffffffffffffffffff16148061078457506107838161077e6110f3565b610e19565b5b6107c3576040517f08c379a00000000000000000000000000000000000000000000000000000000081526004016107ba90612a5a565b60405180910390fd5b6107cd83836110fb565b505050565b6000600880549050905090565b6107f06107ea6110f3565b826111b4565b61082f576040517f08c379a000000000000000000000000000000000000000000000000000000000815260040161082690612b5a565b60405180910390fd5b61083a838383611292565b505050565b600b6020528060005260406000206000915090505481565b600061086283610a65565b82106108a3576040517f08c379a000000000000000000000000000000000000000000000000000000000815260040161089a9061295a565b60405180910390fd5b600660008473ffffffffffffffffffffffffffffffffffffffff1673ffffffffffffffffffffffffffffffffffffffff168152602001908152602001600020600083815260200190815260200160002054905092915050565b61091783838360405180602001604052806000815250610d10565b505050565b60006109266107d2565b8210610967576040517f08c379a000000000000000000000000000000000000000000000000000000000815260040161095e90612b7a565b60405180910390fd5b600882815481106109a1577f4e487b7100000000000000000000000000000000000000000000000000000000600052603260045260246000fd5b90600052602060002001549050919050565b6000806002600084815260200190815260200160002060009054906101000a900473ffffffffffffffffffffffffffffffffffffffff169050600073ffffffffffffffffffffffffffffffffffffffff168173ffffffffffffffffffffffffffffffffffffffff161415610a5c576040517f08c379a0000000000000000000000000000000000000000000000000000000008152600401610a5390612a9a565b60405180910390fd5b80915050919050565b60008073ffffffffffffffffffffffffffffffffffffffff168273ffffffffffffffffffffffffffffffffffffffff161415610ad6576040517f08c379a0000000000000000000000000000000000000000000000000000000008152600401610acd90612a7a565b60405180910390fd5b600360008373ffffffffffffffffffffffffffffffffffffffff1673ffffffffffffffffffffffffffffffffffffffff168152602001908152602001600020549050919050565b610b256110f3565b73ffffffffffffffffffffffffffffffffffffffff16610b43610ba5565b73ffffffffffffffffffffffffffffffffffffffff1614610b99576040517f08c379a0000000000000000000000000000000000000000000000000000000008152600401610b9090612afa565b60405180910390fd5b610ba360006114f9565b565b6000600a60009054906101000a900473ffffffffffffffffffffffffffffffffffffffff16905090565b606060018054610bde90612dbf565b80601f0160208091040260200160405190810160405280929190818152602001828054610c0a90612dbf565b8015610c575780601f10610c2c57610100808354040283529160200191610c57565b820191906000526020600020905b815481529060010190602001808311610c3a57829003601f168201915b5050505050905090565b6000610c6b6107d2565b905060005b82811015610cf557610c8d338284610c889190612c4e565b6115bf565b600b60003373ffffffffffffffffffffffffffffffffffffffff1673ffffffffffffffffffffffffffffffffffffffff1681526020019081526020016000206000815480929190610cdd90612e22565b91905055508080610ced90612e22565b915050610c70565b505050565b610d0c610d056110f3565b83836115dd565b5050565b610d21610d1b6110f3565b836111b4565b610d60576040517f08c379a0000000000000000000000000000000000000000000000000000000008152600401610d5790612b5a565b60405180910390fd5b610d6c8484848461174a565b50505050565b6060610d7d82611087565b610dbc576040517f08c379a0000000000000000000000000000000000000000000000000000000008152600401610db390612b1a565b60405180910390fd5b6000610dc66117a6565b90506000815111610de65760405180602001604052806000815250610e11565b80610df0846117bd565b604051602001610e01929190612892565b6040516020818303038152906040525b915050919050565b6000600560008473ffffffffffffffffffffffffffffffffffffffff1673ffffffffffffffffffffffffffffffffffffffff16815260200190815260200160002060008373ffffffffffffffffffffffffffffffffffffffff1673ffffffffffffffffffffffffffffffffffffffff16815260200190815260200160002060009054906101000a900460ff16905092915050565b610eb56110f3565b73ffffffffffffffffffffffffffffffffffffffff16610ed3610ba5565b73ffffffffffffffffffffffffffffffffffffffff1614610f29576040517f08c379a0000000000000000000000000000000000000000000000000000000008152600401610f2090612afa565b60405180910390fd5b600073ffffffffffffffffffffffffffffffffffffffff168173ffffffffffffffffffffffffffffffffffffffff161415610f99576040517f08c379a0000000000000000000000000000000000000000000000000000000008152600401610f909061299a565b60405180910390fd5b610fa2816114f9565b50565b60007f80ac58cd000000000000000000000000000000000000000000000000000000007bffffffffffffffffffffffffffffffffffffffffffffffffffffffff1916827bffffffffffffffffffffffffffffffffffffffffffffffffffffffff1916148061107057507f5b5e139f000000000000000000000000000000000000000000000000000000007bffffffffffffffffffffffffffffffffffffffffffffffffffffffff1916827bffffffffffffffffffffffffffffffffffffffffffffffffffffffff1916145b80611080575061107f8261196a565b5b9050919050565b60008073ffffffffffffffffffffffffffffffffffffffff166002600084815260200190815260200160002060009054906101000a900473ffffffffffffffffffffffffffffffffffffffff1673ffffffffffffffffffffffffffffffffffffffff1614159050919050565b600033905090565b816004600083815260200190815260200160002060006101000a81548173ffffffffffffffffffffffffffffffffffffffff021916908373ffffffffffffffffffffffffffffffffffffffff160217905550808273ffffffffffffffffffffffffffffffffffffffff1661116e836109b3565b73ffffffffffffffffffffffffffffffffffffffff167f8c5be1e5ebec7d5bd14f71427d1e84f3dd0314c0f7b2291e5b200ac8c7c3b92560405160405180910390a45050565b60006111bf82611087565b6111fe576040517f08c379a00000000000000000000000000000000000000000000000000000000081526004016111f590612a3a565b60405180910390fd5b6000611209836109b3565b90508073ffffffffffffffffffffffffffffffffffffffff168473ffffffffffffffffffffffffffffffffffffffff16148061124b575061124a8185610e19565b5b8061128957508373ffffffffffffffffffffffffffffffffffffffff1661127184610635565b73ffffffffffffffffffffffffffffffffffffffff16145b91505092915050565b8273ffffffffffffffffffffffffffffffffffffffff166112b2826109b3565b73ffffffffffffffffffffffffffffffffffffffff1614611308576040517f08c379a00000000000000000000000000000000000000000000000000000000081526004016112ff906129ba565b60405180910390fd5b600073ffffffffffffffffffffffffffffffffffffffff168273ffffffffffffffffffffffffffffffffffffffff161415611378576040517f08c379a000000000000000000000000000000000000000000000000000000000815260040161136f906129fa565b60405180910390fd5b6113838383836119d4565b61138e6000826110fb565b6001600360008573ffffffffffffffffffffffffffffffffffffffff1673ffffffffffffffffffffffffffffffffffffffff16815260200190815260200160002060008282546113de9190612cd5565b925050819055506001600360008473ffffffffffffffffffffffffffffffffffffffff1673ffffffffffffffffffffffffffffffffffffffff16815260200190815260200160002060008282546114359190612c4e565b92505081905550816002600083815260200190815260200160002060006101000a81548173ffffffffffffffffffffffffffffffffffffffff021916908373ffffffffffffffffffffffffffffffffffffffff160217905550808273ffffffffffffffffffffffffffffffffffffffff168473ffffffffffffffffffffffffffffffffffffffff167fddf252ad1be2c89b69c2b068fc378daa952ba7f163c4a11628f55a4df523b3ef60405160405180910390a46114f4838383611ae8565b505050565b6000600a60009054906101000a900473ffffffffffffffffffffffffffffffffffffffff16905081600a60006101000a81548173ffffffffffffffffffffffffffffffffffffffff021916908373ffffffffffffffffffffffffffffffffffffffff1602179055508173ffffffffffffffffffffffffffffffffffffffff168173ffffffffffffffffffffffffffffffffffffffff167f8be0079c531659141344cd1fd0a4f28419497f9722a3daafe3b4186f6b6457e060405160405180910390a35050565b6115d9828260405180602001604052806000815250611aed565b5050565b8173ffffffffffffffffffffffffffffffffffffffff168373ffffffffffffffffffffffffffffffffffffffff16141561164c576040517f08c379a000000000000000000000000000000000000000000000000000000000815260040161164390612a1a565b60405180910390fd5b80600560008573ffffffffffffffffffffffffffffffffffffffff1673ffffffffffffffffffffffffffffffffffffffff16815260200190815260200160002060008473ffffffffffffffffffffffffffffffffffffffff1673ffffffffffffffffffffffffffffffffffffffff16815260200190815260200160002060006101000a81548160ff0219169083151502179055508173ffffffffffffffffffffffffffffffffffffffff168373ffffffffffffffffffffffffffffffffffffffff167f17307eab39ab6107e8899845ad3d59bd9653f200f220920489ca2b5937696c318360405161173d919061291d565b60405180910390a3505050565b611755848484611292565b61176184848484611b48565b6117a0576040517f08c379a00000000000000000000000000000000000000000000000000000000081526004016117979061297a565b60405180910390fd5b50505050565b606060405180602001604052806000815250905090565b60606000821415611805576040518060400160405280600181526020017f30000000000000000000000000000000000000000000000000000000000000008152509050611965565b600082905060005b6000821461183757808061182090612e22565b915050600a826118309190612ca4565b915061180d565b60008167ffffffffffffffff811115611879577f4e487b7100000000000000000000000000000000000000000000000000000000600052604160045260246000fd5b6040519080825280601f01601f1916602001820160405280156118ab5781602001600182028036833780820191505090505b5090505b6000851461195e576001826118c49190612cd5565b9150600a856118d39190612e6b565b60306118df9190612c4e565b60f81b81838151811061191b577f4e487b7100000000000000000000000000000000000000000000000000000000600052603260045260246000fd5b60200101907effffffffffffffffffffffffffffffffffffffffffffffffffffffffffffff1916908160001a905350600a856119579190612ca4565b94506118af565b8093505050505b919050565b60007f01ffc9a7000000000000000000000000000000000000000000000000000000007bffffffffffffffffffffffffffffffffffffffffffffffffffffffff1916827bffffffffffffffffffffffffffffffffffffffffffffffffffffffff1916149050919050565b6119df838383611cdf565b600073ffffffffffffffffffffffffffffffffffffffff168373ffffffffffffffffffffffffffffffffffffffff161415611a2257611a1d81611ce4565b611a61565b8173ffffffffffffffffffffffffffffffffffffffff168373ffffffffffffffffffffffffffffffffffffffff1614611a6057611a5f8382611d2d565b5b5b600073ffffffffffffffffffffffffffffffffffffffff168273ffffffffffffffffffffffffffffffffffffffff161415611aa457611a9f81611e9a565b611ae3565b8273ffffffffffffffffffffffffffffffffffffffff168273ffffffffffffffffffffffffffffffffffffffff1614611ae257611ae18282611fdd565b5b5b505050565b505050565b611af7838361205c565b611b046000848484611b48565b611b43576040517f08c379a0000000000000000000000000000000000000000000000000000000008152600401611b3a9061297a565b60405180910390fd5b505050565b6000611b698473ffffffffffffffffffffffffffffffffffffffff16612236565b15611cd2578373ffffffffffffffffffffffffffffffffffffffff1663150b7a02611b926110f3565b8786866040518563ffffffff1660e01b8152600401611bb494939291906128d1565b602060405180830381600087803b158015611bce57600080fd5b505af1925050508015611bff57506040513d601f19601f82011682018060405250810190611bfc91906124fa565b60015b611c82573d8060008114611c2f576040519150601f19603f3d011682016040523d82523d6000602084013e611c34565b606091505b50600081511415611c7a576040517f08c379a0000000000000000000000000000000000000000000000000000000008152600401611c719061297a565b60405180910390fd5b805181602001fd5b63150b7a0260e01b7bffffffffffffffffffffffffffffffffffffffffffffffffffffffff1916817bffffffffffffffffffffffffffffffffffffffffffffffffffffffff191614915050611cd7565b600190505b949350505050565b505050565b6008805490506009600083815260200190815260200160002081905550600881908060018154018082558091505060019003906000526020600020016000909190919091505550565b60006001611d3a84610a65565b611d449190612cd5565b9050600060076000848152602001908152602001600020549050818114611e29576000600660008673ffffffffffffffffffffffffffffffffffffffff1673ffffffffffffffffffffffffffffffffffffffff168152602001908152602001600020600084815260200190815260200160002054905080600660008773ffffffffffffffffffffffffffffffffffffffff1673ffffffffffffffffffffffffffffffffffffffff168152602001908152602001600020600084815260200190815260200160002081905550816007600083815260200190815260200160002081905550505b6007600084815260200190815260200160002060009055600660008573ffffffffffffffffffffffffffffffffffffffff1673ffffffffffffffffffffffffffffffffffffffff16815260200190815260200160002060008381526020019081526020016000206000905550505050565b60006001600880549050611eae9190612cd5565b9050600060096000848152602001908152602001600020549050600060088381548110611f04577f4e487b7100000000000000000000000000000000000000000000000000000000600052603260045260246000fd5b906000526020600020015490508060088381548110611f4c577f4e487b7100000000000000000000000000000000000000000000000000000000600052603260045260246000fd5b906000526020600020018190555081600960008381526020019081526020016000208190555060096000858152602001908152602001600020600090556008805480611fc1577f4e487b7100000000000000000000000000000000000000000000000000000000600052603160045260246000fd5b6001900381819060005260206000200160009055905550505050565b6000611fe883610a65565b905081600660008573ffffffffffffffffffffffffffffffffffffffff1673ffffffffffffffffffffffffffffffffffffffff168152602001908152602001600020600083815260200190815260200160002081905550806007600084815260200190815260200160002081905550505050565b600073ffffffffffffffffffffffffffffffffffffffff168273ffffffffffffffffffffffffffffffffffffffff1614156120cc576040517f08c379a00000000000000000000000000000000000000000000000000000000081526004016120c390612aba565b60405180910390fd5b6120d581611087565b15612115576040517f08c379a000000000000000000000000000000000000000000000000000000000815260040161210c906129da565b60405180910390fd5b612121600083836119d4565b6001600360008473ffffffffffffffffffffffffffffffffffffffff1673ffffffffffffffffffffffffffffffffffffffff16815260200190815260200160002060008282546121719190612c4e565b92505081905550816002600083815260200190815260200160002060006101000a81548173ffffffffffffffffffffffffffffffffffffffff021916908373ffffffffffffffffffffffffffffffffffffffff160217905550808273ffffffffffffffffffffffffffffffffffffffff16600073ffffffffffffffffffffffffffffffffffffffff167fddf252ad1be2c89b69c2b068fc378daa952ba7f163c4a11628f55a4df523b3ef60405160405180910390a461223260008383611ae8565b5050565b6000808273ffffffffffffffffffffffffffffffffffffffff163b119050919050565b600061226c61226784612bda565b612bb5565b90508281526020810184848401111561228457600080fd5b61228f848285612d7d565b509392505050565b6000813590506122a68161345f565b92915050565b6000813590506122bb81613476565b92915050565b6000813590506122d08161348d565b92915050565b6000815190506122e58161348d565b92915050565b600082601f8301126122fc57600080fd5b813561230c848260208601612259565b91505092915050565b600081359050612324816134a4565b92915050565b60006020828403121561233c57600080fd5b600061234a84828501612297565b91505092915050565b6000806040838503121561236657600080fd5b600061237485828601612297565b925050602061238585828601612297565b9150509250929050565b6000806000606084860312156123a457600080fd5b60006123b286828701612297565b93505060206123c386828701612297565b92505060406123d486828701612315565b9150509250925092565b600080600080608085870312156123f457600080fd5b600061240287828801612297565b945050602061241387828801612297565b935050604061242487828801612315565b925050606085013567ffffffffffffffff81111561244157600080fd5b61244d878288016122eb565b91505092959194509250565b6000806040838503121561246c57600080fd5b600061247a85828601612297565b925050602061248b858286016122ac565b9150509250929050565b600080604083850312156124a857600080fd5b60006124b685828601612297565b92505060206124c785828601612315565b9150509250929050565b6000602082840312156124e357600080fd5b60006124f1848285016122c1565b91505092915050565b60006020828403121561250c57600080fd5b600061251a848285016122d6565b91505092915050565b60006020828403121561253557600080fd5b600061254384828501612315565b91505092915050565b61255581612d09565b82525050565b61256481612d1b565b82525050565b600061257582612c0b565b61257f8185612c21565b935061258f818560208601612d8c565b61259881612f58565b840191505092915050565b60006125ae82612c16565b6125b88185612c32565b93506125c8818560208601612d8c565b6125d181612f58565b840191505092915050565b60006125e782612c16565b6125f18185612c43565b9350612601818560208601612d8c565b80840191505092915050565b600061261a602b83612c32565b915061262582612f69565b604082019050919050565b600061263d603283612c32565b915061264882612fb8565b604082019050919050565b6000612660602683612c32565b915061266b82613007565b604082019050919050565b6000612683602583612c32565b915061268e82613056565b604082019050919050565b60006126a6601c83612c32565b91506126b1826130a5565b602082019050919050565b60006126c9602483612c32565b91506126d4826130ce565b604082019050919050565b60006126ec601983612c32565b91506126f78261311d565b602082019050919050565b600061270f602c83612c32565b915061271a82613146565b604082019050919050565b6000612732603883612c32565b915061273d82613195565b604082019050919050565b6000612755602a83612c32565b9150612760826131e4565b604082019050919050565b6000612778602983612c32565b915061278382613233565b604082019050919050565b600061279b602083612c32565b91506127a682613282565b602082019050919050565b60006127be602c83612c32565b91506127c9826132ab565b604082019050919050565b60006127e1602083612c32565b91506127ec826132fa565b602082019050919050565b6000612804602f83612c32565b915061280f82613323565b604082019050919050565b6000612827602183612c32565b915061283282613372565b604082019050919050565b600061284a603183612c32565b9150612855826133c1565b604082019050919050565b600061286d602c83612c32565b915061287882613410565b604082019050919050565b61288c81612d73565b82525050565b600061289e82856125dc565b91506128aa82846125dc565b91508190509392505050565b60006020820190506128cb600083018461254c565b92915050565b60006080820190506128e6600083018761254c565b6128f3602083018661254c565b6129006040830185612883565b8181036060830152612912818461256a565b905095945050505050565b6000602082019050612932600083018461255b565b92915050565b6000602082019050818103600083015261295281846125a3565b905092915050565b600060208201905081810360008301526129738161260d565b9050919050565b6000602082019050818103600083015261299381612630565b9050919050565b600060208201905081810360008301526129b381612653565b9050919050565b600060208201905081810360008301526129d381612676565b9050919050565b600060208201905081810360008301526129f381612699565b9050919050565b60006020820190508181036000830152612a13816126bc565b9050919050565b60006020820190508181036000830152612a33816126df565b9050919050565b60006020820190508181036000830152612a5381612702565b9050919050565b60006020820190508181036000830152612a7381612725565b9050919050565b60006020820190508181036000830152612a9381612748565b9050919050565b60006020820190508181036000830152612ab38161276b565b9050919050565b60006020820190508181036000830152612ad38161278e565b9050919050565b60006020820190508181036000830152612af3816127b1565b9050919050565b60006020820190508181036000830152612b13816127d4565b9050919050565b60006020820190508181036000830152612b33816127f7565b9050919050565b60006020820190508181036000830152612b538161281a565b9050919050565b60006020820190508181036000830152612b738161283d565b9050919050565b60006020820190508181036000830152612b9381612860565b9050919050565b6000602082019050612baf6000830184612883565b92915050565b6000612bbf612bd0565b9050612bcb8282612df1565b919050565b6000604051905090565b600067ffffffffffffffff821115612bf557612bf4612f29565b5b612bfe82612f58565b9050602081019050919050565b600081519050919050565b600081519050919050565b600082825260208201905092915050565b600082825260208201905092915050565b600081905092915050565b6000612c5982612d73565b9150612c6483612d73565b9250827fffffffffffffffffffffffffffffffffffffffffffffffffffffffffffffffff03821115612c9957612c98612e9c565b5b828201905092915050565b6000612caf82612d73565b9150612cba83612d73565b925082612cca57612cc9612ecb565b5b828204905092915050565b6000612ce082612d73565b9150612ceb83612d73565b925082821015612cfe57612cfd612e9c565b5b828203905092915050565b6000612d1482612d53565b9050919050565b60008115159050919050565b60007fffffffff0000000000000000000000000000000000000000000000000000000082169050919050565b600073ffffffffffffffffffffffffffffffffffffffff82169050919050565b6000819050919050565b82818337600083830152505050565b60005b83811015612daa578082015181840152602081019050612d8f565b83811115612db9576000848401525b50505050565b60006002820490506001821680612dd757607f821691505b60208210811415612deb57612dea612efa565b5b50919050565b612dfa82612f58565b810181811067ffffffffffffffff82111715612e1957612e18612f29565b5b80604052505050565b6000612e2d82612d73565b91507fffffffffffffffffffffffffffffffffffffffffffffffffffffffffffffffff821415612e6057612e5f612e9c565b5b600182019050919050565b6000612e7682612d73565b9150612e8183612d73565b925082612e9157612e90612ecb565b5b828206905092915050565b7f4e487b7100000000000000000000000000000000000000000000000000000000600052601160045260246000fd5b7f4e487b7100000000000000000000000000000000000000000000000000000000600052601260045260246000fd5b7f4e487b7100000000000000000000000000000000000000000000000000000000600052602260045260246000fd5b7f4e487b7100000000000000000000000000000000000000000000000000000000600052604160045260246000fd5b6000601f19601f8301169050919050565b7f455243373231456e756d657261626c653a206f776e657220696e646578206f7560008201527f74206f6620626f756e6473000000000000000000000000000000000000000000602082015250565b7f4552433732313a207472616e7366657220746f206e6f6e20455243373231526560008201527f63656976657220696d706c656d656e7465720000000000000000000000000000602082015250565b7f4f776e61626c653a206e6577206f776e657220697320746865207a65726f206160008201527f6464726573730000000000000000000000000000000000000000000000000000602082015250565b7f4552433732313a207472616e736665722066726f6d20696e636f72726563742060008201527f6f776e6572000000000000000000000000000000000000000000000000000000602082015250565b7f4552433732313a20746f6b656e20616c7265616479206d696e74656400000000600082015250565b7f4552433732313a207472616e7366657220746f20746865207a65726f2061646460008201527f7265737300000000000000000000000000000000000000000000000000000000602082015250565b7f4552433732313a20617070726f766520746f2063616c6c657200000000000000600082015250565b7f4552433732313a206f70657261746f7220717565727920666f72206e6f6e657860008201527f697374656e7420746f6b656e0000000000000000000000000000000000000000602082015250565b7f4552433732313a20617070726f76652063616c6c6572206973206e6f74206f7760008201527f6e6572206e6f7220617070726f76656420666f7220616c6c0000000000000000602082015250565b7f4552433732313a2062616c616e636520717565727920666f7220746865207a6560008201527f726f206164647265737300000000000000000000000000000000000000000000602082015250565b7f4552433732313a206f776e657220717565727920666f72206e6f6e657869737460008201527f656e7420746f6b656e0000000000000000000000000000000000000000000000602082015250565b7f4552433732313a206d696e7420746f20746865207a65726f2061646472657373600082015250565b7f4552433732313a20617070726f76656420717565727920666f72206e6f6e657860008201527f697374656e7420746f6b656e0000000000000000000000000000000000000000602082015250565b7f4f776e61626c653a2063616c6c6572206973206e6f7420746865206f776e6572600082015250565b7f4552433732314d657461646174613a2055524920717565727920666f72206e6f60008201527f6e6578697374656e7420746f6b656e0000000000000000000000000000000000602082015250565b7f4552433732313a20617070726f76616c20746f2063757272656e74206f776e6560008201527f7200000000000000000000000000000000000000000000000000000000000000602082015250565b7f4552433732313a207472616e736665722063616c6c6572206973206e6f74206f60008201527f776e6572206e6f7220617070726f766564000000000000000000000000000000602082015250565b7f455243373231456e756d657261626c653a20676c6f62616c20696e646578206f60008201527f7574206f6620626f756e64730000000000000000000000000000000000000000602082015250565b61346881612d09565b811461347357600080fd5b50565b61347f81612d1b565b811461348a57600080fd5b50565b61349681612d27565b81146134a157600080fd5b50565b6134ad81612d73565b81146134b857600080fd5b5056fea26469706673582212207a9796c02b1c2118eda34f875935a52edbf3fec3e47a65d48b6c1e57d7ce8c7d64736f6c63430008040033",
    "linkReferences": {},
    "deployedLinkReferences": {}
}